{
  "contractName": "Contest",
  "abi": [
    {
      "constant": true,
      "inputs": [
        {
          "name": "",
          "type": "address"
        }
      ],
      "name": "voters",
      "outputs": [
        {
          "name": "",
          "type": "bool"
        }
      ],
      "payable": false,
      "stateMutability": "view",
      "type": "function"
    },
    {
      "constant": true,
      "inputs": [
        {
          "name": "",
          "type": "uint256"
        }
      ],
      "name": "contestants",
      "outputs": [
        {
          "name": "id",
          "type": "uint256"
        },
        {
          "name": "name",
          "type": "string"
        },
        {
          "name": "voteCount",
          "type": "uint256"
        }
      ],
      "payable": false,
      "stateMutability": "view",
      "type": "function"
    },
    {
      "constant": true,
      "inputs": [],
      "name": "contestantsCount",
      "outputs": [
        {
          "name": "",
          "type": "uint256"
        }
      ],
      "payable": false,
      "stateMutability": "view",
      "type": "function"
    },
    {
      "inputs": [],
      "payable": false,
      "stateMutability": "nonpayable",
      "type": "constructor"
    },
    {
      "anonymous": false,
      "inputs": [
        {
          "indexed": true,
          "name": "_contestantId",
          "type": "uint256"
        }
      ],
      "name": "votedEvent",
      "type": "event"
    },
    {
      "constant": false,
      "inputs": [
        {
          "name": "_contestantId",
          "type": "uint256"
        }
      ],
      "name": "vote",
      "outputs": [],
      "payable": false,
      "stateMutability": "nonpayable",
      "type": "function"
    }
  ],
  "bytecode": "0x608060405234801561001057600080fd5b5061005e6040805190810160405280600581526020017f497266616e000000000000000000000000000000000000000000000000000000815250610197640100000000026401000000009004565b6100ab6040805190810160405280600581526020017f5a61686964000000000000000000000000000000000000000000000000000000815250610197640100000000026401000000009004565b6100f86040805190810160405280600781526020017f4973687469617100000000000000000000000000000000000000000000000000815250610197640100000000026401000000009004565b6101456040805190810160405280600581526020017f54616c6861000000000000000000000000000000000000000000000000000000815250610197640100000000026401000000009004565b6101926040805190810160405280600581526020017f4a61776164000000000000000000000000000000000000000000000000000000815250610197640100000000026401000000009004565b6102b8565b600260008154809291906001019190505550606060405190810160405280600254815260200182815260200160008152506000806002548152602001908152602001600020600082015181600001556020820151816001019080519060200190610202929190610213565b506040820151816002015590505050565b828054600181600116156101000203166002900490600052602060002090601f016020900481019282601f1061025457805160ff1916838001178555610282565b82800160010185558215610282579182015b82811115610281578251825591602001919060010190610266565b5b50905061028f9190610293565b5090565b6102b591905b808211156102b1576000816000905550600101610299565b5090565b90565b610404806102c76000396000f300608060405260043610610062576000357c0100000000000000000000000000000000000000000000000000000000900463ffffffff1680630121b93f14610067578063a3ec138d14610094578063dfd50f52146100ef578063ec63d1c8146101a3575b600080fd5b34801561007357600080fd5b50610092600480360381019080803590602001909291905050506101ce565b005b3480156100a057600080fd5b506100d5600480360381019080803573ffffffffffffffffffffffffffffffffffffffff1690602001909291905050506102f0565b604051808215151515815260200191505060405180910390f35b3480156100fb57600080fd5b5061011a60048036038101908080359060200190929190505050610310565b6040518084815260200180602001838152602001828103825284818151815260200191508051906020019080838360005b8381101561016657808201518184015260208101905061014b565b50505050905090810190601f1680156101935780820380516001836020036101000a031916815260200191505b5094505050505060405180910390f35b3480156101af57600080fd5b506101b86103d2565b6040518082815260200191505060405180910390f35b600160003373ffffffffffffffffffffffffffffffffffffffff1673ffffffffffffffffffffffffffffffffffffffff16815260200190815260200160002060009054906101000a900460ff1615151561022757600080fd5b60008111801561023957506002548111155b151561024457600080fd5b6000808281526020019081526020016000206002016000815480929190600101919050555060018060003373ffffffffffffffffffffffffffffffffffffffff1673ffffffffffffffffffffffffffffffffffffffff16815260200190815260200160002060006101000a81548160ff021916908315150217905550807ffff3c900d938d21d0990d786e819f29b8d05c1ef587b462b939609625b684b1660405160405180910390a250565b60016020528060005260406000206000915054906101000a900460ff1681565b6000602052806000526040600020600091509050806000015490806001018054600181600116156101000203166002900480601f0160208091040260200160405190810160405280929190818152602001828054600181600116156101000203166002900480156103c25780601f10610397576101008083540402835291602001916103c2565b820191906000526020600020905b8154815290600101906020018083116103a557829003601f168201915b5050505050908060020154905083565b600254815600a165627a7a72305820c62b5c1785e7e6f0df3b041b76049e240deb31af95fa431eb87a913d323d54430029",
  "source": "// Solidity Version check in command prompt > truffle version\npragma solidity 0.4.24;\n\n// creating the contract\ncontract Contest {\n\n\t// creating structure to model the contestant\n\tstruct Contestant {\n\t\tuint id;\n\t\tstring name;\n\t\tuint voteCount;\n\t}\n\n\t// use mapping to get or fetch the contestant details\n\tmapping(uint => Contestant) public contestants;\n\n\t// to save the list of users/accounts who already casted vote\n\tmapping(address => bool) public voters;\n\n\t//add a public state variable to keep track of contestant Count\n\tuint public contestantsCount;\n\n\tevent votedEvent (\n\t\tuint indexed _contestantId\n\t);\n\n\tfunction Contest () public {\n\t\taddContestant(\"Irfan\");\n\t\taddContestant(\"Zahid\");\n\t\taddContestant(\"Ishtiaq\");\n\t\taddContestant(\"Talha\");\n\t\taddContestant(\"Jawad\");\n\t}\n\n\t// add a function to add contestant\n\tfunction addContestant (string _name) private {\n\t\tcontestantsCount++;\n\t\tcontestants[contestantsCount] = Contestant(contestantsCount, _name, 0);\n\t}\n\n\tfunction vote (uint _contestantId) public {\n\t\t// restricting the person who already casted the vote\n\t\trequire(!voters[msg.sender]);\n\t\t// require that the vote is casted to valid contestant\n\t\trequire(_contestantId > 0 && _contestantId <= contestantsCount);\n\t\t// increment contestant votes\n\t\tcontestants[_contestantId].voteCount++; \n\t\t// metadata for voter casted the vote = true\n\t\tvoters[msg.sender] = true;\n\t\t\n\t\t// trigger the vote event\n\t\tvotedEvent(_contestantId);\n\t}\n}",
  "sourcePath": "/home/riaz/git/fyp-voting-application/contracts/Contest.sol",
  "compiler": {
    "name": "solc",
    "version": "0.4.24+commit.e67f0147.Emscripten.clang"
  },
  "schemaVersion": "2.0.1",
  "updatedAt": "2018-12-30T16:26:28.913Z"
}